:020000040800F2
:100000000050002041120008711100087911000809
:1000100081110008891100089111000800000000FA
:10002000000000000000000000000000991100081E
:10003000A511000800000000B1110008BD11000862
:100040008912000889120008891200088912000824
:100050008912000889120008891200088912000814
:100060008912000889120008891200088912000804
:1000700089120008891200088912000889120008F4
:1000800089120008891200088912000889120008E4
:1000900089120008891200088912000889120008D4
:1000A00089120008891200088912000889120008C4
:1000B00089120008891200088912000889120008B4
:1000C00089120008891200088912000889120008A4
:1000D0008912000889120008891200088912000894
:1000E0008912000889120008891200080000000027
:1000F0000000000000000000000000000000000000
:0C01000000000000000000005FF808F1A3
:1001100010B5054C237833B9044B13B10448AFF341
:1001200000800123237010BD7C000020000000002F
:100130006845000808B5034B1BB103490348AFF3FA
:10014000008008BD00000000800000206845000815
:10015000034613F8012B002AFBD1181A0138704707
:1001600070B54FF0FF0C4CF4E06C1CEA11541DBF4D
:100170001CEA135594EA0C0F95EA0C0F00F0DEF818
:100180002C4481EA030621EA4C5123EA4C5350EAFD
:10019000013518BF52EA033541F4801143F480134E
:1001A00038D0A0FB02CE4FF00005E1FB02E506F0DF
:1001B0000042E0FB03E54FF00006E1FB03569CF034
:1001C000000F18BF4EF0010EA4F1FF04B6F5007F3A
:1001D00064F5407404D25FEA4E0E6D4146EB0606AC
:1001E00042EAC62141EA55514FEAC52040EA5E5035
:1001F0004FEACE2EB4F1FD0C88BFBCF5E06F1ED8DF
:10020000BEF1004F08BF5FEA500E50F1000041EB15
:10021000045170BD06F0004646EA010140EA0200C2
:1002200081EA0301B4EB5C04C2BFD4EB0C0541EAE4
:10023000045170BD41F480114FF0000E013C00F3F9
:10024000AB8014F1360FDEBF002001F0004170BD1D
:10025000C4F10004203C35DA0C341BDC04F1140436
:10026000C4F1200500FA05F320FA04F001FA05F2C2
:1002700040EA020001F0004221F0004110EBD3708F
:1002800021FA04F642EB06015EEA430E08BF20EABB
:10029000D37070BDC4F10C04C4F1200500FA04F35E
:1002A00020FA05F001FA04F240EA020001F00041F0
:1002B00010EBD37041F100015EEA430E08BF20EA63
:1002C000D37070BDC4F1200500FA05F24EEA020EAB
:1002D00020FA04F301FA05F243EA020321FA04F0DA
:1002E00001F0004121FA04F220EA020000EBD37091
:1002F0005EEA430E08BF20EAD37070BD94F0000F91
:100300000FD101F00046400041EB010111F4801FC4
:1003100008BF013CF7D041EA060195F0000F18BF75
:10032000704703F00046520043EB030313F4801FB1
:1003300008BF013DF7D043EA0603704794EA0C0F6B
:100340000CEA135518BF95EA0C0F0CD050EA410681
:1003500018BF52EA4306D1D181EA030101F00041FE
:100360004FF0000070BD50EA410606BF1046194626
:1003700052EA430619D094EA0C0F02D150EA013632
:1003800013D195EA0C0F05D152EA03361CBF104673
:1003900019460AD181EA030101F0004141F0FE4112
:1003A00041F470014FF0000070BD41F0FE4141F496
:1003B000780170BD4FF0FF0C1CEAD0521EBF1CEA42
:1003C000D15392EA0C0F93EA0C0F6FD01A4480EAD3
:1003D000010C400218BF5FEA41211ED04FF00063BC
:1003E00043EA501043EA5111A0FB01310CF00040E8
:1003F000B1F5000F3EBF490041EAD3715B0040EA0E
:10040000010062F17F02FD2A1DD8B3F1004F40EBDD
:10041000C25008BF20F00100704790F0000F0CF0B0
:10042000004C08BF49024CEA502040EA51207F3A74
:10043000C2BFD2F1FF0340EAC250704740F400004F
:100440004FF00003013A5DDC12F1190FDCBF00F040
:1004500000407047C2F10002410021FA02F1C2F1EE
:10046000200200FA02FC5FEA310040F1000053EA8A
:100470004C0308BF20EADC70704792F0000F00F0D8
:10048000004C02BF400010F4000F013AF9D040EADE
:100490000C0093F0000F01F0004C02BF490011F472
:1004A000000F013BF9D041EA0C018FE70CEAD15370
:1004B00092EA0C0F18BF93EA0C0F0AD030F0004CF0
:1004C00018BF31F0004CD8D180EA010000F00040A4
:1004D000704790F0000F17BF90F0004F084691F062
:1004E000000F91F0004F14D092EA0C0F01D142029C
:1004F0000FD193EA0C0F03D14B0218BF084608D165
:1005000080EA010000F0004040F0FE4040F40000AE
:10051000704740F0FE4040F44000704781F00041D9
:1005200002E000BF83F0004330B54FEA41044FEAD8
:10053000430594EA050F08BF90EA020F1FBF54EA73
:10054000000C55EA020C7FEA645C7FEA655C00F00F
:10055000E2804FEA5454D4EB5555B8BF6D420CDDE0
:100560002C4480EA020281EA030382EA000083EA63
:10057000010180EA020281EA0303362D88BF30BD03
:1005800011F0004F4FEA01314FF4801C4CEA113159
:1005900002D0404261EB410113F0004F4FEA0333B8
:1005A0004CEA133302D0524263EB430394EA050F43
:1005B00000F0A780A4F10104D5F1200E0DDB02FAB2
:1005C0000EFC22FA05F2801841F1000103FA0EF246
:1005D000801843FA05F359410EE0A5F120050EF10C
:1005E000200E012A03FA0EFC28BF4CF0020C43FA3D
:1005F00005F3C01851EBE37101F0004507D54FF04A
:10060000000EDCF1000C7EEB00006EEB0101B1F599
:10061000801F1BD3B1F5001F0CD349085FEA3000DF
:100620004FEA3C0C04F101044FEA445212F5800FEA
:1006300080F09A80BCF1004F08BF5FEA500C50F187
:10064000000041EB045141EA050130BD5FEA4C0C6A
:10065000404141EB0101013C28BFB1F5801FE9D2C7
:1006600091F0000F04BF01460020B1FA81F308BFEA
:100670002033A3F10B03B3F120020CDA0C3208DDB6
:1006800002F1140CC2F10C0201FA0CF021FA02F191
:100690000CE002F11402D8BFC2F1200C01FA02F101
:1006A00020FA0CFCDCBF41EA0C019040E41AA2BF26
:1006B00001EB0451294330BD6FEA04041F3C1CDAEE
:1006C0000C340EDC04F11404C4F1200220FA04F00E
:1006D00001FA02F340EA030021FA04F345EA0301B8
:1006E00030BDC4F10C04C4F1200220FA02F001FA7A
:1006F00004F340EA0300294630BD21FA04F02946FC
:1007000030BD94F0000F83F4801306BF81F4801194
:100710000134013D4EE77FEA645C18BF7FEA655C07
:1007200029D094EA050F08BF90EA020F05D054EAD9
:10073000000C04BF1946104630BD91EA030F1EBFDE
:100740000021002030BD5FEA545C05D140004941E2
:1007500028BF41F0004130BD14F580043CBF01F5D5
:10076000801130BD01F0004545F0FE4141F47001BB
:100770004FF0000030BD7FEA645C1ABF1946104696
:100780007FEA655C1CBF0B46024650EA013406BF97
:1007900052EA033591EA030F41F4002130BD00BF56
:1007A00090F0000F04BF0021704730B54FF4806413
:1007B00004F132044FF000054FF0000150E700BF94
:1007C00090F0000F04BF0021704730B54FF48064F3
:1007D00004F1320410F0004548BF40424FF00001E0
:1007E0003EE700BF42004FEAE2014FEA31014FEA23
:1007F00002701FBF12F07F4393F07F4F81F0605172
:10080000704732F07F4208BF704793F07F4F04BFBC
:1008100041F40021704730B54FF4607401F0004599
:1008200021F000411CE700BF50EA010208BF7047F9
:1008300030B54FF000050AE050EA010208BF7047EA
:1008400030B511F0004502D5404261EB41014FF453
:10085000806404F132045FEA915C3FF4D8AE4FF05B
:1008600003025FEADC0C18BF03325FEADC0C18BF3E
:10087000033202EBDC02C2F1200300FA03FC20FA8F
:1008800002F001FA03FE40EA0E0021FA02F11444DC
:10089000BDE600BF4FEA4102B2F1E04324BFB3F529
:1008A000001CDCF1FE5C0DD901F0004C4FEAC002E7
:1008B0004CEA5070B2F1004F40EB830008BF20F0CB
:1008C0000100704711F0804F21D113F13872BCBF85
:1008D00001F00040704741F480114FEA5252C2F1DA
:1008E0001802C2F1200C10FA0CF320FA02F018BF23
:1008F00040F001004FEAC1234FEAD32303FA0CFC76
:1009000040EA0C0023FA02F34FEA4303CCE77FEA04
:10091000625307D150EA01331EBF4FF0FE4040F44E
:100920004000704701F0004040F0FE4040F40000FD
:10093000704700BF80F0004002E000BF81F000413E
:1009400042001FBF5FEA410392EA030F7FEA226C75
:100950007FEA236C6AD04FEA1262D2EB1363C1BF05
:10096000D218414048404140B8BF5B42192B88BF74
:10097000704710F0004F40F4000020F07F4018BF97
:10098000404211F0004F41F4000121F07F4118BFB7
:10099000494292EA030F3FD0A2F1010241FA03FC5F
:1009A00010EB0C00C3F1200301FA03F100F0004347
:1009B00002D5494260EB4000B0F5000F13D3B0F10F
:1009C000807F06D340084FEA310102F10102FE2A7E
:1009D00051D2B1F1004F40EBC25008BF20F00100EE
:1009E00040EA03007047490040EB0000013A28BF8D
:1009F000B0F5000FEDD2B0FA80FCACF1080CB2EB10
:100A00000C0200FA0CF0AABF00EBC250524218438D
:100A1000BCBFD0401843704792F0000F81F4000132
:100A200006BF80F400000132013BB5E74FEA410305
:100A30007FEA226C18BF7FEA236C21D092EA030F71
:100A400004D092F0000F08BF0846704790EA010FEB
:100A50001CBF0020704712F07F4F04D1400028BF18
:100A600040F00040704712F100723CBF00F50000FA
:100A7000704700F0004343F0FE4040F40000704730
:100A80007FEA226216BF08467FEA236301464202DC
:100A900006BF5FEA412390EA010F40F480007047EF
:100AA0004FF0000304E000BF10F0004348BF404295
:100AB0005FEA000C08BF704743F0964301464FF0D1
:100AC00000001CE050EA010208BF70474FF000032D
:100AD0000AE000BF50EA010208BF704711F000436E
:100AE00002D5404261EB41015FEA010C02BF84463E
:100AF0000146002043F0B64308BFA3F18053A3F59D
:100B00000003BCFA8CF2083AA3EBC25310DB01FAE3
:100B100002FC634400FA02FCC2F12002BCF1004F67
:100B200020FA02F243EB020008BF20F001007047F8
:100B300002F1200201FA02FCC2F1200250EA4C004C
:100B400021FA02F243EB020008BF20EADC70704792
:100B500042000ED2B2F1FE4F0BD34FF09E03B3EB27
:100B6000126209D44FEA002343F0004323FA02F053
:100B700070474FF00000704712F1610F01D142023F
:100B800002D14FF0FF3070474FF00000704700BFB8
:100B900080B584B002AF00F0BBFD00F093F800F028
:100BA000A1F900F0EBF800F027F93A4B9B69394ABC
:100BB00043F004039361374B9B6903F004033B60EC
:100BC0003B6810220221344800F07AFC00213348AF
:100BD00002F0E0FA324800F0F9FE6421304800F0FB
:100BE000A3FF2F4801F0A6F80346FB80FB881846B8
:100BF00000F0C2F903461A462A4B1A70294B1A789C
:100C0000294B1A70284B1B78B42B02D9264BB422DF
:100C10001A70254B1B781846FFF742FF034618460B
:100C200000F08EF903469AB2204B1A801F4B1A88A7
:100C30001A4B1B685A631C4B1B781A461C491D48EB
:100C400002F0E2FF0346DAB21B4B1A701A4B1B7814
:100C50000093184B002200210F4800F0ECFC134BCE
:100C60001B881A461549164802F0CEFF1448FFF7B4
:100C70006FFA0346DBB20093114B002201210648B4
:100C800000F0D9FC4FF4FA7000F0A4FD024800F027
:100C9000EBFC9FE70010024000000020C80000208D
:100CA00098000020110100201001002012010020F6
:100CB000804500081801002014010020904500081C
:100CC0002801002080B594B000AF07F12803282246
:100CD0000021184602F0B8FF07F1140300221A6041
:100CE0005A609A60DA601A613B1D00221A605A60ED
:100CF0009A60DA600123BB624FF48033FB62002309
:100D00003B630123BB6302237B644FF48033BB64EA
:100D10004FF4E013FB6407F12803184601F02AFCA6
:100D20000346002B01D000F04BF90F237B61022317
:100D3000BB610023FB614FF480633B6200237B6255
:100D400007F114030221184601F096FE0346002B1A
:100D500001D000F035F902237B604FF40043FB60C3
:100D60003B1D184602F002F80346002B01D000F0AC
:100D700027F900BF5037BD4680BD000080B584B064
:100D800000AF3B1D00221A605A609A60184B194A46
:100D90001A60174B00229A60154B00221A73144BED
:100DA00000221A75124B4FF46022DA61104B0022B8
:100DB0005A600F4B01221A610D4800F02FFD0346C7
:100DC000002B01D000F0FCF807237B600123BB60FF
:100DD0000023FB603B1D1946054800F0B7FF0346A2
:100DE000002B01D000F0ECF800BF1037BD4680BDED
:100DF000980000200024014080B58EB000AF07F1BC
:100E0000280300221A605A609A60DA6007F1200312
:100E100000221A605A603B1D00221A605A609A60D4
:100E2000DA601A615A619A612C4B2D4A1A602B4B79
:100E300047225A60294B00229A60284B44F61F62D1
:100E4000DA60264B00221A61244B00229A61234863
:100E500002F0F8F80346002B01D000F0B1F84FF48F
:100E60008053BB6207F1280319461C4802F0F6FACA
:100E70000346002B01D000F0A3F8184802F031F926
:100E80000346002B01D000F09BF800233B620023B7
:100E90007B6207F120031946104802F057FE034613
:100EA000002B01D000F08CF860237B600023BB6036
:100EB0000023FB6000237B613B1D0022194607488D
:100EC00002F00AFA0346002B01D000F079F803483B
:100ED00000F008F900BF3837BD4680BDC8000020CB
:100EE0000004004080B485B000AF144B9B69134AE6
:100EF00043F020039361114B9B6903F02003FB60D7
:100F0000FB680E4B9B690D4A43F0040393610B4B46
:100F10009B6903F00403BB60BB68084B9B69074AED
:100F200043F008039361054B9B6903F008037B6062
:100F30007B6800BF1437BD4680BC7047001002407C
:100F400080B582B000AF786008497868FFF732FA60
:100F5000034607491846FFF7F3FC03461846FFF718
:100F6000F7FD034618460837BD4680BD0000204106
:100F70000080F9430000000080B582B000AF034656
:100F8000FB80FB881846FFF71BFC0BA3D3E900236B
:100F9000FFF7E6F802460B4610461946FFF77AFCC3
:100FA00003461846FFF7D4FD0346DBB21846083760
:100FB000BD4680BDAFF30080176881166881A63FEB
:100FC00080B400AF72B600BF00BFFDE780B485B04B
:100FD00000AF154B9B69144A43F001039361124B18
:100FE0009B6903F00103BB60BB680F4BDB690E4AD2
:100FF00043F08053D3610C4BDB6903F080537B607B
:101000007B680A4B5B68FB60FB6823F0E063FB6076
:10101000FB6843F00073FB60044AFB68536000BF49
:101020001437BD4680BC70470010024000000140EC
:1010300080B588B000AF786007F1100300221A6015
:101040005A609A60DA607B681B68144A934221D127
:10105000134B9B69124A43F400739361104B9B69D5
:1010600003F40073FB60FB680D4B9B690C4A43F073
:10107000040393610A4B9B6903F00403BB60BB68E4
:1010800080233B6103237B6107F110031946054868
:1010900001F0D4F800BF2037BD4680BD00240140D8
:1010A000001002400008014080B485B000AF7860B5
:1010B0007B681B68094A93420BD1094BDB69084ADC
:1010C00043F00203D361064BDB6903F00203FB60CC
:1010D000FB6800BF1437BD4680BC70470004004069
:1010E0000010024080B588B000AF786007F10C03B3
:1010F00000221A605A609A60DA607B681B68184A9E
:10110000934229D1174B9B69164A43F00803936118
:10111000144B9B6903F00803BB60BB681023FB60A2
:1011200002233B610223BB6107F10C0319460E4801
:1011300001F084F80D4B5B68FB61FB6923F44063AD
:10114000FB61FB6943F0E063FB61FB6943F400630F
:10115000FB61064AFB69536000BF2037BD4680BD76
:101160000004004000100240000C0140000001405B
:1011700080B400AF00BFFDE780B400AF00BFFDE763
:1011800080B400AF00BFFDE780B400AF00BFFDE753
:1011900080B400AF00BFFDE780B400AF00BFBD4624
:1011A00080BC704780B400AF00BFBD4680BC7047B4
:1011B00080B400AF00BFBD4680BC704780B500AFB3
:1011C00000F0ECFA00BF80BD80B586B000AF78605B
:1011D000144A154BD31A7B617B693B61134B1B6827
:1011E000002B02D1114B124A1A60104B1A687B680F
:1011F00013443A699A4207D202F02EFD03460C22AC
:101200001A604FF0FF3309E0084B1B68FB60074B87
:101210001A687B681344054A1360FB681846183740
:10122000BD4680BD005000200004000030010020B9
:101230008002002080B400AF00BFBD4680BC704774
:10124000FFF7F8FF0B480C490C4A002302E0D45882
:10125000C4500433C4188C42F9D3094A094C002302
:1012600001E013600432A242FBD302F0FBFCFFF763
:101270008FFC7047000000207C0000202046000802
:101280007C00002080020020FEE7000080B400AF58
:10129000144BDB68134A23F08073D360114BDB6877
:1012A000104A43F08073D3600F4B1B680E4A23F043
:1012B000010313600C4B1B680B4A43F001031360DE
:1012C000094B00225A6000BF00BF00BF064B5B689D
:1012D000002B01D0002300E001231846BD4680BC4E
:1012E000704700BFF0ED00E0001000E080B584B072
:1012F00000AF78600D4B5B68FB6001F0FBFC0346C0
:101300000B4AA2FB03239B0C7A6802FB03F37B606E
:1013100000BF064B5A68FB68D21A7B689A42F8D322
:1013200000BF00BF1037BD4680BD00BF001000E009
:1013300083DE1B4380B582B000AF0346FB80FB8891
:101340001846FFF7D3FF00BF0837BD4680BD80B405
:1013500083B000AF78600B46FB707B685B68DA682F
:101360007B681B7A19460F238B40DB4319467B6849
:101370005B680A40DA607B685B68DA68FB787968EA
:10138000097A8B4019467B685B680A43DA6000BFC4
:101390000C37BD4680BC704780B582B000AF786026
:1013A0000B46FB707B6858697B681B8BFA78194683
:1013B00001F0C8F800BF0837BD4680BD80B582B0D7
:1013C00000AF78600B46FB707B68D8687B681B8A2F
:1013D000FA78194601F0B6F800BF0837BD4680BD5F
:1013E00080B586B000AF786007F1080300221A606C
:1013F0005A609A60DA607B681B8BBB600123FB60DC
:1014000002237B617B685B6907F10802114618467D
:1014100000F014FF7B681B8ABB607B68DB6807F108
:1014200008021146184600F009FF7B681B7A1A462D
:101430000F239340BB607B685B6807F1080211468D
:10144000184600F0FBFE00BF1837BD4680BD80B5D2
:1014500082B000AF78600B46FB701346BB70FB7820
:1014600019467868FFF798FFBB781B09DBB219466D
:101470007868FFF76CFF01217868FFF79FFF0A206B
:10148000FFF758FF00217868FFF798FF6420FFF707
:1014900051FFBB7819467868FFF759FF012178683A
:1014A000FFF78CFF0A20FFF745FF00217868FFF760
:1014B00085FF6420FFF73EFF00BF0837BD4680BDB3
:1014C00080B584B000AF78600B46FB701346BB70EC
:1014D000FFF7DCFE7868FFF783FF7B6800229A76CF
:1014E0007B684022DA767B68BA781A77BB7840331B
:1014F000DAB27B685A7700217868FFF74DFF002148
:101500007868FFF75BFF4CF25030FFF713FF0023C2
:10151000FB7318E003217868FFF719FF0121786851
:10152000FFF74CFF0A20FFF705FF00217868FFF75F
:1015300045FF6420FFF7FEFE41F29410FFF7FAFE2C
:10154000FB7B0133FB73FB7B012BE3D90321786821
:10155000FFF7FDFE01217868FFF730FF0A20FFF753
:10156000E9FE00217868FFF729FF6420FFF7E2FE1B
:101570009620FFF7DFFE02217868FFF7E8FE0121E1
:101580007868FFF71BFF0A20FFF7D4FE0021786878
:10159000FFF714FF6420FFF7CDFE282200217868B2
:1015A000FFF755FF002300220121786800F06DF855
:1015B000786800F059F800BF1037BD4680BD80B58F
:1015C00082B000AF78600B46FB701346BB70FB78AF
:1015D0007A6813449A7EBB781344DBB25BB263F043
:1015E0007F035BB2DBB21A4600217868FFF72FFF5A
:1015F00000BF0837BD4680BD80B586B000AFF8603B
:10160000B9601346FB710023FB750BE0BB685A1CE5
:10161000BA601B781A460121F868FFF718FFFB7DB6
:101620000133FB75FA7DFB799A42EFD300BF00BF0F
:101630001837BD4680BD80B584B000AFF8607B60D0
:101640000B46FB721346BB72BA7AFB7A1946F868EE
:10165000FFF7B5FF3B7E1A467968F868FFF7CCFFC5
:1016600000BF1037BD4680BD80B582B000AF786046
:10167000012200217868FFF7EAFE4FF4FA60FFF7D5
:1016800059FE00BF0837BD4680BD80B582B000AFAF
:101690007860084611461A460346FB700B46BB703D
:1016A00013467B707B6800229A77FB78002B06D06C
:1016B0007B689B7F43F00403DAB27B689A77BB7840
:1016C000002B06D07B689B7F43F00203DAB27B6875
:1016D0009A777B78002B06D07B689B7F43F00103D1
:1016E000DAB27B689A777B689B7F43F00403DAB2B7
:1016F0007B689A777B689B7F43F00803DBB21A46CE
:1017000000217868FFF7A3FE00BF0837BD4680BD03
:1017100080B500AF084B1B68074A43F01003136005
:10172000032000F057FD0F2000F008F8FFF74EFCF3
:101730000023184680BD00BF0020024080B582B063
:1017400000AF7860124B1A68124B1B7819464FF4A1
:101750007A73B3FBF1F3B2FBF3F3184600F061FDCB
:101760000346002B01D001230EE07B680F2B0AD823
:10177000002279684FF0FF3000F037FD064A7B68A1
:101780001360002300E0012318460837BD4680BDE2
:1017900020000020280000202400002080B400AF9A
:1017A000054B1B781A46054B1B681344034A13600C
:1017B00000BFBD4680BC70472800002034010020D7
:1017C00080B400AF024B1B681846BD4680BC704712
:1017D0003401002080B584B000AF7860FFF7F0FFDF
:1017E000B8607B68FB60FB68B3F1FF3F05D00A4B34
:1017F0001B781A46FB681344FB6000BFFFF7E0FF4D
:101800000246BB68D31AFA689A42F7D800BF00BFF5
:101810001037BD4680BD00BF2800002080B586B0CF
:1018200000AF78600023FB7500233B610023BB60A1
:101830000023FB607B68002B01D10123BEE07B68A5
:101840009B68002B7B689B6A002B09D17B68002278
:10185000DA627B68002283F824207868FFF7E8FBCF
:10186000786800F0C5FB0346FB757B689B6A03F054
:101870001003002B40F09980FB7D002B40F09580F9
:101880007B689B6A23F4885323F0020343F002022F
:101890007B689A627B685A687B68DB691A437B685D
:1018A0001B7B5B001343BA681343BB607B689B6878
:1018B000B3F5807F03D07B689B68012B02D14FF486
:1018C000807300E000233A6913433B617B681B7D12
:1018D000012B19D17B681B7B002B09D17B689B698D
:1018E000013B5A033B69134343F400633B610BE044
:1018F0007B689B6A43F020027B689A627B68DB6AA4
:1019000043F001027B68DA627B681B685B6823F442
:1019100069417B681B683A690A435A607B681B68A7
:101920009A68284B13407A681268B9680B43936031
:101930007B689B68B3F5807F03D07B689B68012B35
:1019400004D17B681B69013B1B05FB607B681B683E
:10195000DB6A23F470017B681B68FA680A43DA6269
:101960007B681B689A68184B1340BA689A420BD17F
:101970007B680022DA627B689B6A23F0030343F0F2
:1019800001027B689A6218E07B689B6A23F012036D
:1019900043F010027B689A627B68DB6A43F00102C5
:1019A0007B68DA620123FB7507E07B689B6A43F082
:1019B00010027B689A620123FB75FB7D184618377D
:1019C000BD4680BDFDF7E1FFFE0E1FFF80B584B070
:1019D00000AF78600023FB737B6893F82430012B01
:1019E00001D1022398E07B68012283F824207868E3
:1019F00000F0A4FA0346FB73FB7B002B40F08780CA
:101A00007B689B6A23F4407323F0010343F48072E4
:101A10007B689A627B681B68414A934205D1414BBF
:101A20005B6803F47023002B15D17B689B6A23F459
:101A300080127B689A627B681B685B6803F4806332
:101A4000002B26D07B689B6A23F4405343F48052DA
:101A50007B689A621DE07B689B6A43F480127B6816
:101A60009A627B681B682F4A934204D07B681B688C
:101A70002B4A93420DD12B4B5B6803F48063002B00
:101A800007D07B689B6A23F4405343F480527B6801
:101A90009A627B689B6A03F48053002B06D07B68B4
:101AA000DB6A23F006027B68DA6202E07B680022D0
:101AB000DA627B68002283F824207B681B686FF061
:101AC00002021A607B681B689B6803F46023B3F50D
:101AD000602F13D17B681B68114A934205D1114BCB
:101AE0005B6803F47023002B08D17B681B689A683D
:101AF0007B681B6842F4A0029A600CE07B681B685C
:101B00009A687B681B6842F480129A6003E07B68E5
:101B1000002283F82420FB7B18461037BD4680BD89
:101B2000002801400024014090B587B000AF7860E4
:101B3000396000237B610023FB6000233B61FFF7DA
:101B40003FFE78617B681B689B6803F48073002B01
:101B50000BD07B689B6A43F020027B689A627B68AB
:101B6000002283F824200123D3E07B681B685B6894
:101B700003F48073002B31D17B681B68DB6A03F4AC
:101B80007003002B2AD121E03B68B3F1FF3F1DD049
:101B90003B68002B07D0FFF713FE02467B69D31A80
:101BA0003A689A4212D27B681B681B6803F00203F2
:101BB000002B0BD17B689B6A43F004027B689A621E
:101BC0007B68002283F824200323A2E07B681B6843
:101BD0001B6803F00203002BD6D070E04F4B1C684B
:101BE000022001F079F90346B4FBF3F27B681B682D
:101BF00019694B4B0B40002B18D17B681B68D968C7
:101C0000484B0B40002B11D17B681B681969464B70
:101C10000B40002B08D17B681B68D968434B0B40F5
:101C2000002B01D1142320E029231EE07B681B68D0
:101C300019693D4B0B40002B06D17B681B68D968A6
:101C40003A4B0B40002B0DD07B681B681969384B51
:101C50000B40002B08D17B681B68D968344B0B40C4
:101C6000002B01D1542300E0FC2302FB03F33B6172
:101C700021E03B68B3F1FF3F1AD03B68002B07D04F
:101C8000FFF79EFD02467B69D31A3A689A420FD24B
:101C9000FB683A699A420BD97B689B6A43F004025D
:101CA0007B689A627B68002283F82420032330E05B
:101CB000FB680133FB60FB683A699A42D9D87B68BC
:101CC0001B686FF012021A607B689B6A43F4007213
:101CD0007B689A627B681B689B6803F46023B3F59A
:101CE000602F15D17B681B7B002B11D17B689B6A11
:101CF00023F480727B689A627B689B6A03F480534A
:101D0000002B05D17B689B6A43F001027B689A62D5
:101D1000002318461C37BD4690BD00BF20000020A0
:101D20002449922424499200922449129224490081
:101D30004992240080B483B000AF78607B681B6850
:101D4000DB6C18460C37BD4680BC704780B485B04C
:101D500000AF786039600023FB730023BB607B68B1
:101D600093F82430012B01D10223DCE07B680122AF
:101D700083F824203B685B68062B1CD87B681B68B3
:101D8000596B3B685A6813469B001344053B1F225E
:101D900002FA03F3DB4319403B6818683B685A6852
:101DA00013469B001344053B00FA03F27B681B6853
:101DB0000A435A633CE03B685B680C2B1CD87B6889
:101DC0001B68196B3B685A6813469B001344233BFE
:101DD0001F2202FA03F3DB4319403B6818683B6893
:101DE0005A6813469B001344233B00FA03F27B68B6
:101DF0001B680A431A631BE07B681B68D96A3B684F
:101E00005A6813469B001344413B1F2202FA03F316
:101E1000DB4319403B6818683B685A6813469B00CF
:101E20001344413B00FA03F27B681B680A43DA6201
:101E30003B681B68092B1CD97B681B68D9683B6809
:101E40001A6813465B0013441E3B072202FA03F391
:101E5000DB4319403B6898683B681A6813465B008F
:101E600013441E3B00FA03F27B681B680A43DA60E6
:101E700019E07B681B6819693B681A6813465B00A8
:101E80001344072202FA03F3DB4319403B689868C6
:101E90003B681A6813465B00134400FA03F27B6840
:101EA0001B680A431A613B681B68102B03D03B6810
:101EB0001B68112B32D17B681B681D4A934225D1C8
:101EC0007B681B689B6803F40003002B26D17B68AA
:101ED0001B689A687B681B6842F400029A603B6842
:101EE0001B68102B1AD1134B1B68134AA2FB032348
:101EF0009A0C13469B0013445B00BB6002E0BB6876
:101F0000013BBB60BB68002BF9D107E07B689B6A93
:101F100043F020027B689A620123FB737B680022F6
:101F200083F82420FB7B18461437BD4680BC7047DD
:101F3000002401402000002083DE1B4380B584B0D4
:101F400000AF78600023FB600023BB607B681B68E8
:101F50009B6803F00103012B40D07B681B689A68E3
:101F60007B681B6842F001029A601F4B1B681F4A86
:101F7000A2FB03239B0CBB6002E0BB68013BBB6080
:101F8000BB68002BF9D1FFF71BFCF8601FE0FFF7DF
:101F900017FC0246FB68D31A022B18D97B681B6812
:101FA0009B6803F00103012B11D07B689B6A43F00F
:101FB00010027B689A627B68DB6A43F001027B68EF
:101FC000DA627B68002283F82420012307E07B6823
:101FD0001B689B6803F00103012BD8D1002318462E
:101FE0001037BD4680BD00BF2000002083DE1B43AC
:101FF00080B584B000AF78600023FB607B681B680D
:102000009B6803F00103012B2ED17B681B689A6843
:102010007B681B6822F001029A60FFF7D1FBF86031
:102020001BE0FFF7CDFB0246FB68D31A022B14D945
:102030007B681B689B6803F00103012B0DD17B6853
:102040009B6A43F010027B689A627B68DB6A43F00C
:1020500001027B68DA62012307E07B681B689B68EA
:1020600003F00103012BDCD0002318461037BD46D6
:1020700080BD000080B485B000AF78607B6803F05D
:102080000703FB600C4BDB68BB60BA684FF6FF03CD
:102090001340BB60FB681A02BB68134343F0BF6385
:1020A00043F40033BB60044ABB68D36000BF1437FD
:1020B000BD4680BC704700BF00ED00E080B400AFBB
:1020C000044BDB681B0A03F007031846BD4680BCBF
:1020D000704700BF00ED00E080B483B000AF03465E
:1020E0003960FB7197F90730002B0ADB3B68DAB2E5
:1020F0000C4997F907301201D2B20B4483F8002340
:102100000AE03B68DAB20849FB7903F00F03043BAD
:102110001201D2B20B441A7600BF0C37BD4680BC08
:10212000704700BF00E100E000ED00E080B489B03E
:1021300000AFF860B9607A60FB6803F00703FB61E9
:10214000FB69C3F10703042B28BF0423BB61FB69B0
:102150000433062B02D9FB69033B00E000237B61BB
:102160004FF0FF32BB6902FA03F3DA43BB681A404F
:102170007B699A404FF0FF317B6901FA03F3D94341
:102180007B680B40134318462437BD4680BC70471C
:1021900080B582B000AF78607B68013BB3F1807F8F
:1021A00001D301230FE00A4A7B68013B53600F21F2
:1021B0004FF0FF30FFF790FF054B00229A60044B71
:1021C00007221A60002318460837BD4680BD00BFAD
:1021D00010E000E080B582B000AF78607868FFF76B
:1021E00049FF00BF0837BD4680BD80B586B000AF4F
:1021F0000346B9607A60FB7300237B61FFF75EFFE3
:1022000078617A68B9687869FFF790FF024697F9B4
:102210000F3011461846FFF75FFF00BF1837BD4665
:1022200080BD80B582B000AF78607868FFF7B0FFFE
:10223000034618460837BD4680BD000080B48BB009
:1022400000AF7860396000237B6200233B6269E164
:1022500001227B6A02FA03F3FB613B681B68FA699F
:102260001340BB61BA69FB699A4240F058813B68F0
:102270005B689A4A93425ED0984A934275D8984ACE
:10228000934258D0964A93426FD8964A934252D07E
:10229000944A934269D8944A93424CD0924A9342CA
:1022A00063D8924A934246D0904A93425DD8122B0B
:1022B0002AD8122B59D801A252F823F0372300084C
:1022C0001123000823230008652300086B2300085E
:1022D0006B2300086B2300086B2300086B230008A6
:1022E0006B2300086B2300086B2300086B23000896
:1022F0006B2300086B2300086B2300086B23000886
:10230000192300082D230008794A934213D02CE0AA
:102310003B68DB683B6229E03B68DB6804333B6277
:1023200024E03B68DB6808333B621FE03B68DB6806
:102330000C333B621AE03B689B68002B02D10423FC
:102340003B6213E03B689B68012B05D108233B628D
:102350007B68FA691A6109E008233B627B68FA69C5
:102360005A6103E000233B6200E000BFBB69FF2B22
:1023700001D87B6801E07B6804337B61BB69FF2B7C
:1023800002D87B6A9B0002E07B6A083B9B003B61B2
:102390007B691A680F213B6901FA03F3DB431A409A
:1023A000396A3B6901FA03F31A437B691A603B6897
:1023B0005B6803F08053002B00F0B1804D4B9B69AC
:1023C0004C4A43F0010393614A4B9B6903F00103BC
:1023D000BB60BB68484A7B6A9B08023352F82330D3
:1023E000FB607B6A03F003039B000F2202FA03F3F6
:1023F000DB43FA681340FB607B68404A934213D08A
:102400007B683F4A93420DD07B683E4A934207D097
:102410007B683D4A934201D1032306E0042304E094
:10242000022302E0012300E000237A6A02F00302A3
:1024300092009340FA681343FB602F497B6A9B0824
:102440000233FA6841F823203B685B6803F4801389
:10245000002B06D02D4B9A682C49BB6913438B6027
:1024600006E02A4B9A68BB69DB43284913408B601E
:102470003B685B6803F40013002B06D0234BDA683B
:102480002249BB691343CB6006E0204BDA68BB6985
:10249000DB431E491340CB603B685B6803F40033A9
:1024A000002B06D0194B5A681849BB6913434B607F
:1024B00006E0164B5A68BB69DB43144913404B6076
:1024C0003B685B6803F48033002B21D00F4B1A6804
:1024D0000E49BB6913430B6021E000BF00003210BE
:1024E0000000311000002210000021100000121026
:1024F00000001110001002400000014000080140DF
:10250000000C014000100140001401400004014093
:102510000B4B1A68BB69DB43094913400B607B6AAC
:1025200001337B623B681A687B6A22FA03F3002B53
:102530007FF48EAE00BF00BF2C37BD4680BC704715
:102540000004014080B483B000AF78600B467B800C
:1025500013467B707B78002B03D07A887B681A61E6
:1025600003E07B881A047B681A6100BF0C37BD4604
:1025700080BC704780B586B000AF78607B68002B68
:1025800001D1012372E27B681B6803F00103002B79
:1025900000F08780924B5B6803F00C03042B0CD097
:1025A0008F4B5B6803F00C03082B12D18C4B5B68DC
:1025B00003F48033B3F5803F0BD1894B1B6803F4E0
:1025C0000033002B6CD07B685B68002B68D1012343
:1025D0004CE27B685B68B3F5803F06D1804B1B689B
:1025E0007F4A43F4803313602EE07B685B68002BE6
:1025F0000CD17B4B1B687A4A23F480331360784BF1
:102600001B68774A23F4802313601DE07B685B68B6
:10261000B3F5A02F0CD1724B1B68714A43F4802391
:1026200013606F4B1B686E4A43F4803313600BE0FA
:102630006B4B1B686A4A23F480331360684B1B683A
:10264000674A23F4802313607B685B68002B13D0F8
:10265000FFF7B6F8386108E0FFF7B2F802463B69C9
:10266000D31A642B01D9032300E25D4B1B6803F4EA
:102670000033002BF0D014E0FFF7A2F8386108E037
:10268000FFF79EF802463B69D31A642B01D9032356
:10269000ECE1534B1B6803F40033002BF0D100E056
:1026A00000BF7B681B6803F00203002B63D04C4B18
:1026B0005B6803F00C03002B0BD0494B5B6803F005
:1026C0000C03082B1CD1464B5B6803F48033002BB2
:1026D00016D1434B1B6803F00203002B05D07B6827
:1026E0001B69012B01D00123C0E13D4B1B6823F086
:1026F000F8027B685B69DB00394913430B603AE001
:102700007B681B69002B20D0364B01221A60FFF733
:1027100057F8386108E0FFF753F802463B69D31ACF
:10272000022B01D90323A1E12D4B1B6803F0020307
:10273000002BF0D02A4B1B6823F0F8027B685B6902
:10274000DB00274913430B6015E0264B00221A607B
:10275000FFF736F8386108E0FFF732F802463B69C8
:10276000D31A022B01D9032380E11D4B1B6803F010
:102770000203002BF0D17B681B6803F00803002BD9
:102780003AD07B689B69002B19D0174B01221A6045
:10279000FFF716F8386108E0FFF712F802463B69C8
:1027A000D31A022B01D9032360E10D4B5B6A03F0BE
:1027B0000203002BF0D0012000F0BAFA1CE00A4B13
:1027C00000221A60FEF7FCFF38610FE0FEF7F8FF09
:1027D00002463B69D31A022B08D9032346E100BF06
:1027E000001002400000424280044242924B5B6A69
:1027F00003F00203002BE9D17B681B6803F004039C
:10280000002B00F0A6800023FB758B4BDB6903F0E7
:102810008053002B0DD1884BDB69874A43F08053EE
:10282000D361854BDB6903F08053BB60BB68012338
:10283000FB75824B1B6803F48073002B18D17F4B10
:102840001B687E4A43F480731360FEF7B9FF38615A
:1028500008E0FEF7B5FF02463B69D31A642B01D9A5
:10286000032303E1754B1B6803F48073002BF0D046
:102870007B68DB68012B06D16F4B1B6A6E4A43F005
:10288000010313622DE07B68DB68002B0CD16A4BDF
:102890001B6A694A23F001031362674B1B6A664A8D
:1028A00023F0040313621CE07B68DB68052B0CD16A
:1028B000614B1B6A604A43F0040313625E4B1B6A60
:1028C0005D4A43F0010313620BE05B4B1B6A5A4AFB
:1028D00023F001031362584B1B6A574A23F0040389
:1028E00013627B68DB68002B15D0FEF769FF386147
:1028F0000AE0FEF765FF02463B69D31A41F28832CF
:10290000934201D90323B1E04B4B1B6A03F002034E
:10291000002BEED014E0FEF753FF38610AE0FEF71B
:102920004FFF02463B69D31A41F28832934201D9E4
:1029300003239BE0404B1B6A03F00203002BEED104
:10294000FB7D012B05D13C4BDB693B4A23F08053D7
:10295000D3617B68DB69002B00F08780364B5B68B6
:1029600003F00C03082B61D07B68DB69022B46D196
:10297000334B00221A60FEF723FF386108E0FEF7B0
:102980001FFF02463B69D31A022B01D903236DE0D6
:10299000294B1B6803F00073002BF0D17B681B6A86
:1029A000B3F5803F08D1244B5B6823F400327B6889
:1029B0009B68214913434B601F4B5B6823F47412DF
:1029C0007B68196A7B685B6A0B431B4913434B6046
:1029D0001B4B01221A60FEF7F3FE386108E0FEF798
:1029E000EFFE02463B69D31A022B01D903233DE0D7
:1029F000114B1B6803F00073002BF0D035E0104B37
:102A000000221A60FEF7DCFE386108E0FEF7D8FE0F
:102A100002463B69D31A022B01D9032326E0064B59
:102A20001B6803F00073002BF0D11EE07B68DB69AC
:102A3000012B07D1012319E0001002400070004073
:102A4000600042420B4B5B68FB60FB6803F4803222
:102A50007B681B6A9A4206D1FB6803F470127B689C
:102A60005B6A9A4201D0012300E000231846183720
:102A7000BD4680BD0010024080B584B000AF7860D4
:102A800039607B68002B01D10123D0E06A4B1B68C1
:102A900003F007033A689A4210D9674B1B6823F08A
:102AA000070265493B6813430B60634B1B6803F0E7
:102AB00007033A689A4201D00123B8E07B681B689B
:102AC00003F00203002B20D07B681B6803F0040393
:102AD000002B05D0594B5B68584A43F4E0635360C0
:102AE0007B681B6803F00803002B05D0534B5B6821
:102AF000524A43F460535360504B5B6823F0F0023A
:102B00007B689B684D4913434B607B681B6803F0EF
:102B10000103002B40D07B685B68012B07D1474B3A
:102B20001B6803F40033002B15D101237FE07B6881
:102B30005B68022B07D1414B1B6803F00073002B2D
:102B400009D1012373E03D4B1B6803F00203002B06
:102B500001D101236BE0394B5B6823F003027B68F2
:102B60005B68364913434B60FEF72AFEF8600AE0C3
:102B7000FEF726FE0246FB68D31A41F288329342E2
:102B800001D9032353E02D4B5B6803F00C027B68F3
:102B90005B689B009A42EBD1274B1B6803F007034D
:102BA0003A689A4210D2244B1B6823F0070222494C
:102BB0003B6813430B60204B1B6803F007033A6824
:102BC0009A4201D0012332E07B681B6803F00403C2
:102BD000002B08D0194B5B6823F4E0627B68DB684C
:102BE000164913434B607B681B6803F00803002BF6
:102BF00009D0124B5B6823F460527B681B69DB00D1
:102C00000E4913434B6000F021F802460B4B5B6802
:102C10001B0903F00F030A49CB5C22FA03F3094AAC
:102C20001360094B1B681846FEF788FD0023184601
:102C30001037BD4680BD00BF00200240001002409A
:102C40009C450008200000202400002080B487B0AC
:102C500000AF0023FB600023BB6000237B610023E7
:102C60007B6000233B611E4B5B68FB60FB6803F0ED
:102C70000C03042B02D0082B03D027E0194B3B6137
:102C800027E0FB689B0C03F00F03174AD35C7B60C3
:102C9000FB6803F48033002B10D0114B5B685B0C96
:102CA00003F00103114AD35CBB607B680D4A03FB50
:102CB00002F2BB68B2FBF3F37B6104E07B680C4A71
:102CC00002FB03F37B617B693B6102E0054B3B61E7
:102CD00000BF3B6918461C37BD4680BC704700BF2B
:102CE0000010024000127A00B4450008C4450008F4
:102CF00000093D0080B400AF024B1B681846BD467A
:102D000080BC70472000002080B500AFFFF7F2FFC5
:102D10000246054B5B68DB0A03F007030349CB5C03
:102D200022FA03F3184680BD00100240AC450008AB
:102D300080B485B000AF78600A4B1B680A4AA2FBDA
:102D400003235B0A7A6802FB03F3FB6000BFFB68A6
:102D50005A1EFA60002BF9D100BF00BF1437BD46E0
:102D600080BC704720000020D34D621080B586B033
:102D700000AF786000233B610023FB607B681B6829
:102D800003F00103002B7DD00023FB754F4BDB6963
:102D900003F08053002B0DD14C4BDB694B4A43F0C1
:102DA0008053D361494BDB6903F08053BB60BB6840
:102DB0000123FB75464B1B6803F48073002B18D16D
:102DC000434B1B68424A43F480731360FEF7F8FCE0
:102DD000386108E0FEF7F4FC02463B69D31A642B25
:102DE00001D903236DE03A4B1B6803F48073002B79
:102DF000F0D0364B1B6A03F44073FB60FB68002B7A
:102E00002ED07B685B6803F44073FA689A4227D03F
:102E10002E4B1B6A23F44073FB602E4B01221A6079
:102E20002C4B00221A60294AFB681362FB6803F0EE
:102E30000103002B14D0FEF7C3FC38610AE0FEF753
:102E4000BFFC02463B69D31A41F28832934201D952
:102E5000032336E01D4B1B6A03F00203002BEED068
:102E60001A4B1B6A23F440727B685B681749134353
:102E70000B62FB7D012B05D1144BDB69134A23F058
:102E80008053D3617B681B6803F00203002B08D0DA
:102E90000E4B5B6823F440427B689B680B491343ED
:102EA0004B607B681B6803F01003002B08D0074BB6
:102EB0005B6823F480027B68DB68044913434B6042
:102EC000002318461837BD4680BD00BF00100240E1
:102ED000007000404004424280B588B000AF786086
:102EE00000237B610023FB6100233B610023FB6027
:102EF0000023BB617B68102B0AD07B68102B00F28B
:102F00008A807B68012B45D07B68022B75D082E0DC
:102F1000464B5B68FB60454B1B6803F08073002BDE
:102F20007BD0FB689B0C03F00F03414AD35C3B61F1
:102F3000FB6803F48033002B15D03C4B5B685B0CC3
:102F400003F001033B4AD35C7B61FB6803F48033ED
:102F5000002B0DD0384A7B69B2FBF3F23B6902FBD0
:102F600003F3FB6104E03B69344A02FB03F3FB61BA
:102F70002E4B5B6803F48003B3F5800F02D1FB692D
:102F8000BB614AE0FB695B002D4AA2FB03235B089F
:102F9000BB6142E0254B1B6AFB60FB6803F4407396
:102FA000B3F5807F08D1FB6803F00203002B03D048
:102FB0004FF40043BB611FE0FB6803F44073B3F5BB
:102FC000007F09D1194B5B6A03F00203002B03D089
:102FD00049F64043BB610FE0FB6803F44073B3F56F
:102FE000407F1CD1114B1B6803F40033002B16D01B
:102FF0004FF22443BB6112E011E0FFF785FE024669
:103000000A4B5B689B0B03F0030301335B00B2FBCD
:10301000F3F3BB6104E000BF02E000BF00E000BFCB
:10302000BB6918462037BD4680BD00BF0010024076
:10303000C8450008D845000800127A0000093D0084
:10304000ABAAAAAA80B582B000AF78607B68002BDB
:1030500001D1012341E07B6893F83D30DBB2002BC6
:1030600006D17B68002283F83C207868FEF71CF8C4
:103070007B68022283F83D207B681A687B680433F2
:103080001946104600F0B2FA7B68012283F8462008
:103090007B68012283F83E207B68012283F83F2071
:1030A0007B68012283F840207B68012283F841205D
:1030B0007B68012283F842207B68012283F8432049
:1030C0007B68012283F844207B68012283F8452035
:1030D0007B68012283F83D20002318460837BD464F
:1030E00080BD80B582B000AF78607B68002B01D1D5
:1030F000012341E07B6893F83D30DBB2002B06D121
:103100007B68002283F83C20786800F039F87B68FF
:10311000022283F83D207B681A687B6804331946D5
:10312000104600F063FA7B68012283F846207B6832
:10313000012283F83E207B68012283F83F207B68D0
:10314000012283F840207B68012283F841207B68BC
:10315000012283F842207B68012283F843207B68A8
:10316000012283F844207B68012283F845207B6894
:10317000012283F83D20002318460837BD4680BD54
:1031800080B483B000AF786000BF0C37BD4680BC10
:103190007047000080B584B000AF786039603B684C
:1031A000002B09D17B6893F83E30DBB2012B14BFB2
:1031B00001230023DBB222E03B68042B09D17B68AA
:1031C00093F83F30DBB2012B14BF01230023DBB2A5
:1031D00015E03B68082B09D17B6893F84030DBB2DF
:1031E000012B14BF01230023DBB208E07B6893F8B6
:1031F0004130DBB2012B14BF01230023DBB2002BD3
:1032000001D001235EE03B68002B04D17B680222E1
:1032100083F83E2013E03B68042B04D17B68022234
:1032200083F83F200BE03B68082B04D17B68022227
:1032300083F8402003E07B68022283F841207B680A
:103240001B6801223968184600F05CFC7B681B682B
:103250001E4A934207D17B681B685A6C7B681B68C7
:1032600042F400425A647B681B68184A93420ED0AD
:103270007B681B68B3F1804F09D07B681B68144AD8
:10328000934204D07B681B68124A934211D17B6839
:103290001B689B6803F00703FB60FB68062B10D0DC
:1032A0007B681B681A687B681B6842F001021A6021
:1032B00007E07B681B681A687B681B6842F00102A4
:1032C0001A60002318461037BD4680BD002C01400F
:1032D000000400400008004080B586B000AFF860F0
:1032E000B9607A600023FB75FB6893F83C30012BD2
:1032F00001D10223AEE0FB68012283F83C207B6809
:103300000C2B00F29F8001A252F823F041330008F9
:10331000453400084534000845340008813300086E
:10332000453400084534000845340008C33300081C
:1033300045340008453400084534000803340008CB
:10334000FB681B68B968184600F0BEF9FB681B688B
:103350009A69FB681B6842F008029A61FB681B6867
:103360009A69FB681B6822F004029A61FB681B687B
:103370009969BB681A69FB681B680A439A6164E033
:10338000FB681B68B968184600F004FAFB681B6804
:103390009A69FB681B6842F400629A61FB681B68CB
:1033A0009A69FB681B6822F480629A61FB681B685B
:1033B0009969BB681B691A02FB681B680A439A611A
:1033C00043E0FB681B68B968184600F04DFAFB68DB
:1033D0001B68DA69FB681B6842F00802DA61FB6867
:1033E0001B68DA69FB681B6822F00402DA61FB687B
:1033F0001B68D969BB681A69FB681B680A43DA61F4
:1034000023E0FB681B68B968184600F097FAFB6870
:103410001B68DA69FB681B6842F40062DA61FB68CA
:103420001B68DA69FB681B6822F48062DA61FB685A
:103430001B68D969BB681B691A02FB681B680A43D1
:10344000DA6102E00123FB7500BFFB68002283F80C
:103450003C20FB7D18461837BD4680BD80B584B042
:1034600000AF786039600023FB737B6893F83C30D1
:10347000012B01D10223B4E07B68012283F83C20B8
:103480007B68022283F83D207B681B689B68BB60D9
:10349000BB6823F07703BB60BB6823F47F43BB604A
:1034A0007B681B68BA689A603B681B68B3F5005F6D
:1034B0003ED0B3F5005F00F28780B3F5805F00F087
:1034C0008680B3F5805F7FD8702B1AD0702B7BD8A5
:1034D000602B50D0602B77D8502B3CD0502B73D81A
:1034E000402B58D0402B6FD8302B64D0302B6BD86A
:1034F000202B60D0202B67D8002B5CD0102B5AD00B
:1035000062E07B6818683B6899683B685A683B686A
:10351000DB6800F0D8FA7B681B689B68BB60BB68FF
:1035200043F07703BB607B681B68BA689A604FE022
:103530007B6818683B6899683B685A683B68DB6839
:1035400000F0C1FA7B681B689A687B681B6842F4CC
:1035500080429A603CE07B6818683B6859683B6829
:10356000DB681A4600F038FA7B681B685021184661
:1035700000F08FFA2CE07B6818683B6859683B685C
:10358000DB681A4600F056FA7B681B686021184613
:1035900000F07FFA1CE07B6818683B6859683B685C
:1035A000DB681A4600F018FA7B681B684021184651
:1035B00000F06FFA0CE07B681A683B681B681946DC
:1035C000104600F066FA03E00123FB7300E000BF41
:1035D0007B68012283F83D207B68002283F83C2031
:1035E000FB7B18461037BD4680BD000080B485B017
:1035F00000AF786039607B681B68FB607B682F4A8E
:1036000093420BD07B68B3F1804F07D07B682C4A84
:10361000934203D07B682B4A934208D1FB6823F086
:103620007003FB603B685B68FA681343FB607B6870
:10363000224A93420BD07B68B3F1804F07D07B685E
:103640001F4A934203D07B681E4A934208D1FB680D
:1036500023F44073FB603B68DB68FA681343FB604C
:10366000FB6823F080023B685B691343FB607B6867
:10367000FA681A603B689A687B68DA623B681A6885
:103680007B689A627B680D4A934203D13B681A6952
:103690007B681A637B6801225A617B681B6903F0AF
:1036A0000103002B05D07B681B6923F001027B68B6
:1036B0001A6100BF1437BD4680BC7047002C014022
:1036C000000400400008004080B487B000AF78607C
:1036D00039607B681B6A7B617B681B6A23F001028F
:1036E0007B681A627B685B683B617B689B69FB60F7
:1036F000FB6823F07003FB60FB6823F00303FB60AF
:103700003B681B68FA681343FB607B6923F0020384
:103710007B613B689B687A6913437B617B681C4AC9
:1037200093420CD17B6923F008037B613B68DB6823
:103730007A6913437B617B6923F004037B617B68B7
:10374000134A934211D13B6923F480733B613B6977
:1037500023F400733B613B685B693A6913433B6147
:103760003B689B693A6913433B617B683A695A60DD
:103770007B68FA689A613B685A687B685A637B6821
:103780007A691A6200BF1C37BD4680BC704700BF13
:10379000002C014080B487B000AF786039607B684E
:1037A0001B6A7B617B681B6A23F010027B681A62CC
:1037B0007B685B683B617B689B69FB60FB6823F40B
:1037C000E043FB60FB6823F44073FB603B681B68CD
:1037D0001B02FA681343FB607B6923F020037B61C3
:1037E0003B689B681B017A6913437B617B681D4AB8
:1037F00093420DD17B6923F080037B613B68DB68DA
:103800001B017A6913437B617B6923F040037B6171
:103810007B68144A934213D13B6923F480633B6174
:103820003B6923F400633B613B685B699B003A6939
:1038300013433B613B689B699B003A6913433B61BF
:103840007B683A695A607B68FA689A613B685A6893
:103850007B689A637B687A691A6200BF1C37BD4631
:1038600080BC7047002C014080B487B000AF786006
:1038700039607B681B6A7B617B681B6A23F48072FA
:103880007B681A627B685B683B617B68DB69FB6015
:10389000FB6823F07003FB60FB6823F00303FB600D
:1038A0003B681B68FA681343FB607B6923F4007371
:1038B0007B613B689B681B027A6913437B617B6871
:1038C0001D4A93420DD17B6923F400637B613B6801
:1038D000DB681B027A6913437B617B6923F4806395
:1038E0007B617B68144A934213D13B6923F4805374
:1038F0003B613B6923F400533B613B685B691B01FF
:103900003A6913433B613B689B691B013A69134366
:103910003B617B683A695A607B68FA68DA613B68A8
:103920005A687B68DA637B687A691A6200BF1C3761
:10393000BD4680BC704700BF002C014080B487B0FA
:1039400000AF786039607B681B6A3B617B681B6AEB
:1039500023F480527B681A627B685B687B617B68BA
:10396000DB69FB60FB6823F4E043FB60FB6823F446
:103970004073FB603B681B681B02FA681343FB60E3
:103980003B6923F400533B613B689B681B033A6926
:1039900013433B617B680F4A934209D17B6923F44F
:1039A00080437B613B685B699B017A6913437B6160
:1039B0007B687A695A607B68FA68DA613B685A68A2
:1039C0007B681A647B683A691A6200BF1C37BD467F
:1039D00080BC7047002C014080B487B000AFF86015
:1039E000B9607A60FB681B6A7B61FB681B6A23F025
:1039F0000102FB681A62FB689B693B613B6923F02B
:103A0000F0033B617B681B013A6913433B617B69AF
:103A100023F00A037B617A69BB6813437B61FB680F
:103A20003A699A61FB687A691A6200BF1C37BD4621
:103A300080BC704780B487B000AFF860B9607A602E
:103A4000FB681B6A7B61FB681B6A23F01002FB6842
:103A50001A62FB689B693B613B6923F470433B61DD
:103A60007B681B033A6913433B617B6923F0A00326
:103A70007B61BB681B017A6913437B61FB683A6910
:103A80009A61FB687A691A6200BF1C37BD4680BC28
:103A9000704780B485B000AF786039607B689B6800
:103AA000FB60FB6823F07003FB603A68FB6813431C
:103AB00043F00703FB607B68FA689A6000BF143725
:103AC000BD4680BC704780B487B000AFF860B96075
:103AD0007A603B60FB689B687B617B6923F47F4372
:103AE0007B613B681A027B681A43BB6813437A699F
:103AF00013437B61FB687A699A6000BF1C37BD463F
:103B000080BC704780B487B000AFF860B9607A605D
:103B1000BB6803F01F03012202FA03F37B61FB6819
:103B20001A6A7B69DB431A40FB681A62FB681A6AEF
:103B3000BB6803F01F03796801FA03F31A43FB68BB
:103B40001A6200BF1C37BD4680BC704780B485B088
:103B500000AF786039607B6893F83C30012B01D16D
:103B6000022346E07B68012283F83C207B68022226
:103B700083F83D207B681B685B68FB607B681B6883
:103B80009B68BB60FB6823F07003FB603B681B68AD
:103B9000FA681343FB607B681B68FA685A607B68AD
:103BA0001B68164A93420ED07B681B68B3F1804FA6
:103BB00009D07B681B68124A934204D07B681B685B
:103BC000104A93420CD1BB6823F08003BB603B6872
:103BD0005B68BA681343BB607B681B68BA689A600D
:103BE0007B68012283F83D207B68002283F83C201B
:103BF000002318461437BD4680BC7047002C014096
:103C000000040040000800400EB46FF0004100B511
:103C10009CB01DAB02900690079104910848094999
:103C200053F8042B0591006802A9019300F092F962
:103C30000022029B1A701CB05DF804EB03B07047C1
:103C40002C0000200802FFFF03460244934200D1EB
:103C5000704703F8011BF9E7014B1868704700BF74
:103C60002C00002070B500260C4D0D4C641BA410D8
:103C7000A64209D100F078FC00260A4D0A4C641BCC
:103C8000A410A64205D170BD55F8043B98470136F3
:103C9000EEE755F8043B98470136F2E7184600086E
:103CA00018460008184600081C4600087047704770
:103CB00038B50546002940D051F8043C0C1F002BB4
:103CC000B8BFE41800F0DEF81C4A136833B963602B
:103CD00014602846BDE8384000F0DAB8A34208D99D
:103CE000206821188B4201BF19685B6809182160A0
:103CF000EDE71A465B680BB1A342FAD91168501878
:103D0000A0420BD120680144501883421160E0D1D9
:103D100018685B68084410605360DAE702D90C2326
:103D20002B60D6E7206821188B4201BF19685B68B9
:103D30000918216063605460CBE738BD7C02002025
:103D400070B50F4E0C463168054611B900F0AAFB5C
:103D500030602146284600F0A5FB431C03D14FF0FC
:103D6000FF34204670BDC41C24F00304A042F8D0E8
:103D7000211A284600F096FB0130F2D1EFE700BF90
:103D8000780200202DE9F843CD1C25F00305083505
:103D90000C2D38BF0C25002D064601DBA94204D9A5
:103DA0000C2333600020BDE8F883DFF8D48000F0F6
:103DB00069F8D8F800301C4644BB29463046FFF766
:103DC000BFFF431C044658D1D8F800402746002FB7
:103DD00043D1002C4BD023683946304604EB03090D
:103DE00000F060FB814542D1216830466D1A2946BA
:103DF000FFF7A6FF01303AD023682B442360D8F8A0
:103E000000305A6862BBC8F800700FE02268521B8D
:103E100020D40B2A17D96119A342256018BF596015
:103E2000636808BFC8F8001062514B60304600F06C
:103E30002FF804F10B00231D20F00700C21A1CBF4D
:103E40001B1AA350AFE76268A3420CBFC8F800205A
:103E50005A60EBE723466468AEE73C467F68B6E706
:103E60001A465B68A342FBD100235360DEE70C23B4
:103E70003046336000F00CF894E70560D6E700BFE9
:103E80007C0200200148FFF711BF00BF7402002030
:103E90000148FFF70CBF00BF740200202DE9F04776
:103EA0001F468E688246BE420C4690460B682DD84F
:103EB000B1F90C2012F4906F26D06569096905EB01
:103EC0004505A3EB010905EBD5757B1C4B446D1033
:103ED0009D4238BF1D46530527D52946FFF752FF9F
:103EE000064660B34A46216900F0FAFAA38923F432
:103EF000906343F08003A38126614E4426603E46D2
:103F00006561A5EB0905A560BE4200D93E46324673
:103F10004146206800F0ACFA0020A3689B1BA36018
:103F2000236833442360BDE8F0872A4600F0E6FAB0
:103F300006460028E0D150462169FFF7B9FE0C2360
:103F4000CAF80030A3894FF0FF3043F04003A3814B
:103F5000E9E700002DE9F04F98468B8907461B06DC
:103F60000D4614469DB010D50B6973B94021FFF77B
:103F700009FF2860286130B90C233B604FF0FF3007
:103F80001DB0BDE8F08F40236B610023099320230F
:103F90008DF8293030234FF00109CDF80C80DFF87F
:103FA00098818DF82A3023469A4613F8012B0AB1DE
:103FB000252AF9D1BAEB040B0BD05B4622462946E1
:103FC0003846FFF76BFF013000F0A780099A5A448A
:103FD00009929AF80030002B00F09F8000234FF0E8
:103FE000FF32CDE905230AF1010A049307938DF806
:103FF00053301A935446052214F8011B4E4800F022
:1040000061FA049AD8B9D00644BF20238DF8533002
:10401000110744BF2B238DF853309AF800302A2B18
:1040200015D0544600204FF00A0C079A214611F88B
:10403000013B303B092B4BD9B0B1079214E0A0EB08
:10404000080309FA03F31343A2460493D2E7039B40
:10405000191D1B680391002BBBBF5B4242F002029B
:1040600007930793B8BF049223782E2B0AD1637865
:104070002A2B32D1039B02341A1D1B68039243EA98
:10408000E3730593DFF8B4A003225046217800F0D3
:1040900019FA38B14022049BA0EB0A008240134376
:1040A0000134049314F8011B062225488DF82810CA
:1040B00000F008FA002836D0224B1BBB039B0733C5
:1040C00023F0070308330393099B334409936AE7FA
:1040D0000C4601200CFB0232A8E700234FF00A0C2B
:1040E000194601340593204610F8012B303A092A6D
:1040F00003D9002BC6D00591C4E7044601230CFB6D
:104100000121F0E703AB00932A4638460E4B04A981
:10411000AFF30080421C0646D6D1AB895B063FF563
:104120002DAF09982CE703AB00932A463846064B7F
:1041300004A900F07DF8EDE7DA450008E045000845
:10414000E4450008000000009D3E00082DE9F0470E
:10415000164698468A680B6907469342B8BF1346CD
:10416000336091F843200C46DDF820900AB101330A
:1041700033602368990642BF336802333360256891
:1041800015F0060506D104F1190AE36832689B1A96
:10419000AB422BDC94F843302268003B18BF01236C
:1041A000920630D44146384604F14302C8470130F4
:1041B00023D02368226903F00603042B14BF0025D3
:1041C00033684FF0000608BFE56804F11A0408BF21
:1041D000ED1A54F8123C08BF25EAE5759342C4BFB6
:1041E0009B1AED18B5421AD1002008E0012352466F
:1041F00041463846C847013003D14FF0FF30BDE893
:10420000F0870135C1E73020E11881F843005A1CDE
:1042100094F845102244023382F84310C2E7012388
:10422000224641463846C8470130E6D00136D9E734
:104230002DE9FF470F7E9146782F80460C469A461F
:104240000C9E01F1430207D8622F0AD8002F00F01C
:10425000D380582F00F0BA8004F1420684F84270EF
:104260003AE0A7F16303152BF6D801A151F823F02A
:10427000C9420008DD4200085942000859420008BE
:104280005942000859420008DD420008594200081E
:10429000594200085942000859420008DF4300080B
:1042A0000743000899430008594200085942000892
:1042B0000144000859420008074300085942000819
:1042C00059420008A143000833681A1D1B68326078
:1042D00004F1420684F8423001239EE033682068EE
:1042E000191D3160060601D51D6803E04506FBD5A2
:1042F000B3F90050002D03DA2D236D4284F84330CA
:104300000A23594811E021683368080653F8045B12
:1043100002D4490648BFADB26F2F336014BF0A23E1
:1043200008235148002184F843106668002EA8BF76
:104330002168A660A4BF21F0040121600DB9002E00
:104340004BD01646B5FBF3F103FB1157C75D06F8DA
:10435000017D2F46BB420D46F4D9082B0BD12368B3
:10436000DF0708D5236961689942DEBF302306F86C
:10437000013C06F1FF36921B22614B462146404626
:10438000CDF800A003AAFFF7E1FE01304AD14FF0BB
:10439000FF3004B0BDE8F087236843F020032360BA
:1043A0007827324884F84570236831681F0651F831
:1043B000045B02D45F0648BFADB23160D90744BF89
:1043C00043F0200323601DB11023ABE72648E9E743
:1043D000236823F020032360F6E71646BDE7336821
:1043E0002568181D616930602E061B6801D51960AB
:1043F00002E06806FBD51980002316462361BCE75E
:10440000336800211A1D32601E686268304600F071
:1044100059F808B1801B606063682361002384F849
:104420004330AAE73246494640462369D047013027
:10443000ADD023689B0713D4E068039B9842B8BFB4
:104440001846A6E70123324649464046D047013088
:104450009DD00135E36803995B1AAB42F2DCEBE7D0
:10446000002504F11906F5E7EB450008FC450008B6
:10447000884210B501EB020402D98442234607D8D2
:10448000431EA14208D011F8012B03F8012FF8E7D1
:10449000014602448A4200D110BD13F8014D02F8D2
:1044A000014DF7E738B50023054D044608462B605B
:1044B000FCF78AFE431C02D12B6803B1236038BD90
:1044C00070020020034610B5C9B202449342184658
:1044D00001D1002003E0047801338C42F6D110BDF5
:1044E0000A44914200F1FF3300D1704710B511F832
:1044F000014B914203F8014FF9D110BD2DE9F04174
:10450000804615460C4621B91146BDE8F041FFF73B
:1045100039BC2AB9FFF7CCFB00242046BDE8F08166
:1045200000F01AF88542064602D8B5EB500FF4D8D1
:1045300029464046FFF726FC07460028ECD0B54246
:104540002A46214628BF3246FFF7CAFF2146404689
:10455000FFF7AEFB3C46E0E751F8043C181F002B88
:10456000BCBF0B58C0187047F8B500BFF8BC08BCFA
:104570009E467047F8B500BFF8BC08BC9E46704721
:10458000416E676C65203D202530336400000000DB
:1045900050574D203D202564000000000000000021
:1045A00000000000010203040607080900000000E3
:1045B0000102030402030405060708090A0B0C0D97
:1045C0000E0F10100102000002030405060708097F
:1045D0000A0B0C0D0E0F10100102232D302B2000A2
:1045E000686C4C00656667454647003031323334AD
:1045F000353637383941424344454600303132334D
:10460000343536373839616263646566000000000E
:0846100040BBFF7F0100000028
:044618003501000860
:04461C001101000880
:1046200000000000000801400000000000080140F8
:104630002000000000080140100000000000000001
:1046400000127A001000000001000000300000207D
:104650000000000038010020A00100200802002016
:10466000000000000000000000000000000000004A
:10467000000000000000000000000000000000003A
:10468000000000000000000000000000000000002A
:0C4690000000000000000000000000001E
:04000005080012419C
:00000001FF
